:020000040800F2
:100000005005002049010008B51A00082D1200080B
:10001000D9190008B5050008DD2600080000000019
:10002000000000000000000000000000851D000826
:1000300059070008000000003D1B0008991E000839
:100040006301000863010008630100086301000800
:10005000630100086301000811090008630100083A
:10006000050A00085D0A0008DD0A000863010008AF
:1000700063010008630100086301000863010008D0
:1000800063010008630100086301000863010008C0
:100090006301000863010008630100085D0B0008AC
:1000A00063010008630100086301000863010008A0
:1000B0006301000863010008630100086301000890
:1000C0006301000863010008630100086301000880
:1000D000630100080D2300086301000863010008A4
:1000E0006301000863010008630100086301000860
:1000F0006301000863010008630100086301000850
:10010000630100086301000863010008630100083F
:10011000630100086301000863010008630100082F
:10012000630100086301000863010008630100081F
:10013000DFF810D000F06EF8004800477D3000086E
:10014000AFF300805005002006488047064800476E
:10015000FEE7FEE7FEE7FEE7FEE7FEE7FEE7FEE777
:10016000FEE7FEE7D91E000831010008D2B201E027
:1001700000F8012B491EFBD270470022F6E710B5AC
:1001800013460A4604461946FFF7F0FF204610BD05
:100190002DE9F05F0546002092469B4688460646BC
:1001A000814640241BE0284641464746224600F04F
:1001B00020F853465A46C01A914110D311461846AA
:1001C000224600F039F82D1A67EB01084F46224607
:1001D0000120002100F030F817EB00094E41201EED
:1001E000A4F10104DFDC484631462A464346BDE817
:1001F000F09F202A04DB203A21FA02F00021704708
:1002000021FA02F3D040C2F120029140084319467E
:1002100070470000064C074D06E0E06840F001031F
:1002200094E8070098471034AC42F6D3FFF784FFF8
:100230003884000858840008202A04DB203A00FA99
:1002400002F1002070479140C2F1200320FA03F32D
:10025000194390407047000008B50121042001F0C7
:100260007FFC0320ADF8000000208DF803006946F4
:10027000014800F0C5FE08BD0008014010B5FFF7B9
:10028000EBFF00F001F810BD00B591B00121084668
:1002900001F056FC364800F09BF936480690364887
:1002A0000790002008900220099000200A908020EA
:1002B0000B9040000C9080000D9020200E900002CA
:1002C0000F900020109006A9294800F027FA01217C
:1002D000274800F071F90121480201F041FC00209B
:1002E000019001208DF808008DF809004FF460207E
:1002F00003900020049002208DF8140001A91D48ED
:100300004C3800F0A1F805230122002119484C388F
:1003100000F0C2F805230222012116484C3800F0F3
:10032000BBF8012113484C3800F033F80121114883
:100330004C3800F023F80F484C3800F009F900BFA2
:100340000C484C3800F075F80028F9D109484C38B1
:1003500000F00EF900BF07484C3800F053F80028B1
:10036000F9D1012103484C3800F0F7F811B000BD75
:10037000080002404C2401400200002021B18268A4
:1003800042F00102826003E0826822F00102826092
:10039000704721B1826842F48072826003E0826813
:1003A00022F480728260704710B50446124884427D
:1003B00008D10121401501F0E3FB0021601501F097
:1003C000DFFB17E00D48844208D10121001501F040
:1003D000D7FB0021201501F0D3FB0BE00848844235
:1003E00008D10121C80301F0CBFB00214FF40040EC
:1003F00001F0C6FB10BD00000024014000280140B0
:10040000003C0140014600208A6802F004020AB163
:10041000012000E0002070470146C86C80B27047A0
:100420000246002013680B400BB1012000E00020C1
:100430007047014600208A6802F008020AB10120D4
:1004400000E000207047000030B502460020002385
:1004500050680F4C20400D790C6844EA0524204375
:10046000506090680B4C2040D1E902542C434D79E8
:1004700044EA450420439060D06A20F470000C7C6C
:10048000641EE4B2234340EA0350D06230BD000052
:10049000FFFEF0FFFDF7F1FFF0B504460D4600202A
:1004A0000021092D11DDE068A5F10A0606EB4607DB
:1004B000072606FA07F18843A5F10A0606EB460669
:1004C00003FA06F10843E0600CE0206905EB4507FC
:1004D000072606FA07F1884305EB450603FA06F1FD
:1004E00008432061072A0FDA606B561E06EB860769
:1004F0001F2606FA07F18843561E06EB860605FA04
:1005000006F10843606322E00D2A0FDA206BD61F44
:1005100006EB86071F2606FA07F18843D61F06EB6F
:10052000860605FA06F10843206310E0E06AA2F1AE
:100530000D0606EB86071F2606FA07F18843A2F18F
:100540000D0606EB860605FA06F10843E062F0BDEB
:10055000816841F008018160704721B1826842F4EE
:10056000A002826003E0826822F4A00282607047E9
:10057000816841F0040181607047000008B50121E5
:10058000082001F0EDFA4FF48070ADF80000102063
:100590008DF8030003208DF802006946044800F03E
:1005A0002FFD4FF48071024800F007FE08BD0000E7
:1005B000000C014000BFFEE721B1026842F00102D9
:1005C000026004E002684FF6FE731A400260704752
:1005D00001684FF6FE721140016000210160416028
:1005E0008160C1604B49884208D14A49083949684D
:1005F00041F00F01474A083A51608AE045491431F9
:10060000884208D143490839496841F0F001414A1C
:10061000083A51607DE03F492831884208D13D4980
:100620000839496841F470613A4A083A516070E00B
:1006300038493C31884208D136490839496841F483
:100640007041344A083A516063E03249503188427F
:1006500008D130490839496841F470212D4A083AD7
:10066000516056E02B496431884208D12949083944
:10067000496841F47001274A083A516049E0254928
:100680007831884208D123490839496841F07061BE
:10069000204A083A51603CE01F49884206D1011FB8
:1006A000096841F00F01021F116032E01A4914314C
:1006B000884208D11849091F096841F0F001164A1B
:1006C000121F116025E014492831884208D11249CF
:1006D000091F096841F470610F4A121F116018E088
:1006E0000D493C31884208D10B49091F096841F482
:1006F0007041094A121F11600BE0074950318842CE
:1007000007D10549091F096841F47021024A121FE7
:1007100011607047080002400804024010B5002232
:10072000026847F6F0739A430C6A8B6823430C699E
:1007300023434C6923438C692343CC6923434C6A8C
:1007400023438C6A23431A430260CB6843600B68DF
:1007500083604B68C36010BD7047000038B5044625
:10076000012C11D12020ADF8000010208DF80300DD
:1007700003208DF8020069460A4800F041FC202160
:10078000084800F01CFD0CE02020ADF800004820D7
:100790008DF8030003208DF802006946014800F03F
:1007A0002FFC38BD0020014070B50446002500BF75
:1007B00004E000F015F86055681CC5B2052DF8DBA3
:1007C000207861780844A1780844E17808442179C8
:1007D000884201D1002070BD4FF0FF30FBE70000E0
:1007E00070B50026002400252FE0002407E0641CDB
:1007F000022002F0D5FA322C01D3002070BD202156
:10080000144800F0D1FC0028F1D0282002F0C8FAEA
:100810002021104800F0C8FC012814D1C5F10701BF
:1008200088403043C6B2002407E0641C022002F076
:10083000B7FA322C01D3FF20E0E72021054800F071
:10084000B3FC0128F1D0681CC5B2082DCDDB3046C1
:10085000D4E700000020014010B500240120FFF77C
:100860007DFF2021294800F0AAFC322002F098FAEE
:100870002021264800F0A1FC142002F06BFA202170
:10088000224800F09CFC1E2002F08AFA0020FFF7AC
:1008900065FF00BF09E0641C022002F081FAB4F594
:1008A0007A7F02D34FF0FF3010BD2021174800F0AF
:1008B0007BFC0128EFD0282002F072FA002408E027
:1008C000641C022002F06CFA502C02D34FF0FF306F
:1008D000EAE720210D4800F067FC0028F0D028202E
:1008E00002F05EFA002408E0641C022002F058FACC
:1008F000502C02D34FF0FF30D6E72021034800F000
:1009000053FC0128F0D00020CEE700000020014079
:100910001CB5012000F088F9012855D10A2002F009
:1009200019FA2B48006801284ED12A48006801288E
:100930001BD100202749086027A01821CDE900100D
:100940002748438802884FF4BE71C82000F0ACFEEF
:1009500024A01821CDE900102148438802884FF4D3
:10096000BE713C2000F0A0FE1AE001201949086089
:100970001EA01821CDE900101948438802884FF4C1
:10098000BE713C2000F090FE1AA01821CDE90010A5
:100990001348438802884FF4BE71C82000F084FEDB
:1009A0001648006808B9012000E0002013490860DB
:1009B0000A2002F0CFF91248D0F8A00108B90120AE
:1009C00000E000200D490860012000F027F91CBD5F
:1009D000000121422C000020202020202020200087
:1009E000520000205F5F5F5F5F5F000020202020DB
:1009F000202000005F5F5F5F5F5F5F00A08121429A
:100A00000080214210B5042000F00EF901281BD10E
:100A10000A2002F09FF90E480068A8B902F0BEF85B
:100A20000C48006808B9012000E00020094908606E
:100A30000A2002F08FF90848D0F8A00108B9012077
:100A400000E0002003490860042000F0E7F810BD32
:100A500008012342A08121420080214210B50820D4
:100A600000F0E2F801282CD10A2002F073F91748AF
:100A7000006830BB1648006810B902F05FFA01E068
:100A800001F0C8FD11488830006808B9012000E075
:100A900000200E49883108600E48D0F8A00108B93E
:100AA000012000E000200C4908600A2002F052F901
:100AB0000848D0F8A00108B9012000E0002006494C
:100AC0000860082000F0AAF810BD00000C012342C5
:100AD0002C00002000802142A081214210B510206E
:100AE00000F0A2F801282CD10A2002F033F91748AF
:100AF000006830BB1648006810B902F051FA01E0F6
:100B000001F0BAFD1348006808B9012000E0002098
:100B1000104908601048D0F8A00108B9012000E091
:100B200000200C490C3108600A2002F013F90A4831
:100B3000D0F8A00108B9012000E0002005490C31DF
:100B40000860102000F06AF810BD00001001234278
:100B50002C00002094812142008021422DE9F041A7
:100B600000240026002501202349086039E04FF4C5
:100B70000071224800F018FB012832D100F03EFB42
:100B80000446FA2C00DB2DE0C82C03DBFA2C01DA3A
:100B900001260AE03C2C03DB5A2C01DA012704E091
:100BA0000A2C02DB322C00DA0027012E17D1144860
:100BB0000068400012490860084600683844086030
:100BC000202D0CDB0846006802F048F80C4801684C
:100BD0000CA001F085FD01200F49087002E0681C9F
:100BE000C5B2C4E700BF4FF4007000F017F8002052
:100BF00001490860BDE8F081A0812142000C01405C
:100C000030000020BAECCDE2BDD3CAD5C2EB20251E
:100C1000302E38580D0A00003400002001490860C9
:100C20007047000014040140014600200022074BD9
:100C30001B6803EA0102054B14331B680B4013B118
:100C40000AB1012000E000207047000000040140CC
:100C5000002123498279002A3AD00A4612680368A3
:100C60009A430B461A600A1D126803689A430B1DCB
:100C70001A60027911440A6803681A430A60184A24
:100C80000832126803689A43154B08331A601A1D1C
:100C9000126803689A43124B0C331A604279102A87
:100CA0000ED11A1F126803681A430D4B08331A60DD
:100CB0001A1D126803681A43094B0C331A600DE0C1
:100CC0000749427911440A6803681A430A6005E03B
:100CD000027911440A6803689A430A607047000069
:100CE000000401400149C860704700000020024034
:100CF00030B5044604254FF4302000F06FF8054667
:100D0000042D17D10C48006940F002000A4908611F
:100D100008464461006940F0400008614FF430200B
:100D200000F05CF805460448006941F6FD71084092
:100D300001490861284630BD0020024004200B49CB
:100D4000C96801F0010109B101200EE00749C96835
:100D500001F0040109B1022007E00449C96801F06B
:100D6000100109B1032000E0042070470020024078
:100D70000348006940F080000149086170470000A5
:100D80000020024070B504460D460426F00200F033
:100D900025F80646042E11D10948006940F00100EB
:100DA000074908612580F00200F018F8064604485B
:100DB000006941F6FE71084001490861304670BD86
:100DC00000200240024803494860034848607047D9
:100DD0002301674500200240AB89EFCD00B50246F4
:100DE0000423FFF7ABFF034603E0FFF7A7FF03462B
:100DF000521E012B01D1002AF7D102B90523184652
:100E000000BD2DE9F04105460E46174600244FF07F
:100E10000408FFF7D7FF3520FFF764FF2846FFF7E8
:100E200067FF804600BF08E036F8242091B205EB4A
:100E30008400FFF7A7FF8046641CBC42F4DBFFF789
:100E400097FFBDE8F081000051B18200A2F1C042DD
:100E5000126842F001038200A2F1C042136009E06F
:100E60008200A2F1C0421268034B1A408300A3F132
:100E7000C0431A6070470000FEFF0F00D0E9011266
:100E80001143C268114302691143426911438269E7
:100E90001143C2691143026A1143426A1143826AD3
:100EA0001143C26A1143026B114302689200A2F11E
:100EB000C0421160816808290BD101688900A1F145
:100EC000C041096841F0400201688900A1F1C041B8
:100ED0000A60416B0968426B526841EA0211426B39
:100EE000926841EA0221426B928941EA0241426BD7
:100EF000128A41EA0251426B127D41EA0261426B61
:100F0000926911430268521C9200A2F1C042116022
:100F1000C16AB1F5804F1BD1816B0968826B526841
:100F200041EA0211826B926841EA0221826B128AC5
:100F300041EA0251826B127D41EA0261826B926941
:100F4000114302689200A2F1C042C2F8041107E006
:100F50006FF0704201688900A1F1C041C1F804211D
:100F60007047000030B500228B071C0F0F2303FAD7
:100F700004F20B4B8C1053F824309343084C8D1023
:100F800044F8253023468C1053F824308C07240F66
:100F900000FA04F42343024C8D1044F8253030BD90
:100FA000080001401CB50121124800F0B5F80121EC
:100FB000802000F0D5FD0121082000F0D1FDE020C7
:100FC000ADF8040010208DF8070003208DF806000E
:100FD00001A9094800F014F8FF20ADF80000102026
:100FE0008DF8030003208DF802006946034800F0E5
:100FF00007F81CBD00023000000C0140001C01403D
:101000002DE9F0410246002500260020002300249F
:10101000002791F803C00CF00F0591F803C00CF005
:10102000100CBCF1000F03D091F802C04CEA05058A
:1010300091F800C0BCF1000F31D0146800202BE003
:101040004FF0010C0CFA00F3B1F800C00CEA0306F3
:101050009E4220D183004FF00F0C0CFA03F7BC43E3
:1010600005FA03FC4CEA040491F803C0BCF1280F14
:1010700006D14FF0010C0CFA00FCC2F814C00AE0D3
:1010800091F803C0BCF1480F05D14FF0010C0CFAE8
:1010900000FCC2F810C0401C0828D1D31460B1F87D
:1010A00000C0BCF1FF0F34DD546800202EE000F1D9
:1010B000080C4FF0010808FA0CF3B1F800C00CEA74
:1010C00003069E4221D183004FF00F0C0CFA03F768
:1010D000BC4305FA03FC4CEA040491F803C0BCF1DC
:1010E000280F05D100F1080C08FA0CF8C2F814809A
:1010F00091F803C0BCF1480F07D100F1080C4FF084
:10110000010808FA0CF8C2F81080401C0828CED359
:101110005460BDE8F0810000F0B50A4600230024C9
:101120000021002500F00046B6F1004F02D11D4E0F
:10113000F16901E01B4E7168C0F3034583B200F40E
:101140004016B6F5401F08D121F07061154E766843
:1011500026F07066134F7E6012E000F48016B6F53C
:10116000801F06D1032606FA05F4A14341F0706101
:1011700006E0460D360103FA06F6B14341F0706110
:1011800022B1460D360103FA06F6314300F000465F
:10119000B6F1004F02D1034EF16101E0014E7160E2
:1011A000F0BD0000000001400246002093680B40A3
:1011B0000BB1012000E000207047416170470161E0
:1011C0007047C1607047000010B504460723012234
:1011D00021460948FFF760F901210748FFF7BDF9EB
:1011E00000BF02210448FFF71BF90028F9D002488C
:1011F000FFF712F910BD0000003C014010B50024BB
:1012000008E0601CC4B2142001F0CAFDFA2C01DB16
:10121000204610BD4FF400710348FFF7C5FF0128B9
:10122000EFD02046F5E70000000C014000BFFEE7CC
:101230001FB50121092000F093FC4FF40070ADF8B8
:101240000C0048208DF80F0003A91448FFF7D8FEC2
:1012500009210120FFF786FE4FF40070FFF7DEFC46
:101260004FF40070019000208DF808000C208DF8DC
:10127000090001208DF80A0001A8FFF7E9FC1720FA
:101280008DF8000000208DF8010001208DF802008B
:101290008DF80300684600F00FFC1FBD000C0140F4
:1012A00008B50121442000F05BFC0120ADF80000EE
:1012B00028208DF8030069460648FFF7A1FE1C2090
:1012C000ADF8000048208DF8030069460248FFF79A
:1012D00097FE08BD000801400018014070B50646A1
:1012E0000F484088401E83B20D480088401E82B2DD
:1012F0000021084600F073F800240CE0002504E00B
:10130000304600F0CFFA681C85B205484088A842F4
:10131000F6DC601C84B202480088A042EEDC70BD9E
:101320005200002000B502460F4882716AB936208B
:1013300000F0ACFA002000F0AFFA4FF4F0700A4968
:1013400048804FF4A07008800CE0362000F09EFA30
:10135000602000F0A1FA4FF4A070034948804FF4D8
:10136000F070088000BD00005200002070B50446F7
:101370000D4616462B4622462946204600F02FF8F9
:10138000304600F08FFA70BD10B5FFF70BFE00215C
:101390000B48FFF716FF00210A48FFF712FF4FF432
:1013A000FA7001F0FDFC382000F032FA0C2000F059
:1013B0002FFA062000F02CFA012000F029FA10BDC7
:1013C000001C0140000C014010B50246012000E065
:1013D00050430B1EA1F10104E1B2F9D110BD70B56B
:1013E00004460D462A2000F051FA2646E11704EB88
:1013F0001161C1F30F2000F04FFAE11704EB116106
:101400000912A4EB012188B200F046FA1646D11762
:1014100002EB1161C1F30F2000F03EFA1646D1171E
:1014200002EB11610912A2EB012188B200F034FA3B
:101430002B2000F02BFA2E46E91705EB1161C1F3C2
:101440000F2000F029FAE91705EB11610912A5EB4D
:10145000012188B200F020FA1E46D91703EB116172
:10146000C1F30F2000F018FA1E46D91703EB1161E3
:101470000912A3EB012188B200F00EFA2C2000F033
:1014800005FA70BD2DE9F84F80460F4616461C46FA
:10149000BB462046E31704EB5373DB1021464FEAAB
:1014A000E47C04EB5C7C4FEAEC0CA4EBCC0CBCF1D0
:1014B000000F02D04FF0010C01E04FF0000C63442C
:1014C000224604EBD27C4FEA6C0C03FB0CF3DBB23C
:1014D0000093A6F12000C6B200255EE00C2C07D1D7
:1014E00006EB46002F4901EB800010F805901BE049
:1014F000102C05D12C4800EB061010F8059013E0D5
:10150000182C07D106EBC600284901EB800010F823
:10151000059009E0202C05D1254800EBC61010F8F5
:10152000059001E0BDE8F88F4FF0000A2FE009F0C8
:10153000800030B11F48028839464046FFF716FF49
:1015400007E00A9828B91C48028839464046FFF748
:101550000DFF4FEA49604FEA1069781C87B21748BF
:101560004088B84200DCDDE7A7EB0B00A0420AD1BF
:101570005F4608F101001FFA80F8104800884045D6
:1015800000DCCFE706E00AF1010000F0FF0ABAF143
:10159000080FCCDB00BF681CC5B2009885429DDBFC
:1015A00000BFBFE72035000894390008843F0008D9
:1015B000E04C00084E0000205000002052000020A7
:1015C0002DE9F84F04460F461546A346009760E004
:1015D000002657E006EB8600C0EB86102F4911F875
:1015E0001000297888424BD106EB8600C0EB8610AC
:1015F0002A4901EB400040786978884240D14FF099
:1016000000083AE006EB8600C0EB8610234901EBA8
:101610004000801C10F808A04FF0000926E00AF0F6
:101620008000802806D11E48028839462046FFF7F0
:101630009DFE05E01B48028839462046FFF796FECE
:101640004FF6FF7000EA4A0A601C84B2A4EB0B005C
:10165000202807D15C46781C87B20098381A1D28CC
:1016600000D1009F09F1010000F0FF09B9F1080F56
:10167000D5DB08F1010000F0FF08B8F1740FC1DB01
:10168000701CC6B2142EA5DBAD1C04F1200084B280
:10169000A346287800289BD1BDE8F88F607C00081D
:1016A0004E000020500000202DE9F84704460D466A
:1016B00090469946DDE9096704F0FF0A08EB04004B
:1016C0001FFA80F809EB05001FFA80F916E044457F
:1016D00002DB5446A81985B24D4500DB14E000201A
:1016E00000903A78334629462046FFF7CBFE304635
:1016F00006EBD07104EB61018CB27F1C38787E2838
:1017000002DC38782028E2DA00BFBDE8F8872DE94E
:10171000FF4F82B0064692461F46DDE90F48002083
:10172000019000254DE0781B401EC1B20A20FFF752
:101730004BFEBAFBF0F00A21B0FBF1F201FB1209FB
:10174000019850BB781EA84227DDB9F1000F22D1C5
:1017500008F0800078B108F00100A34604EBDB71CB
:10176000491001FB0561009088B22346302203999D
:10177000FFF788FE0EE008F00100A34604EBDB71E2
:10178000491001FB0561009088B22346202203998D
:10179000FFF778FE13E00120019008F00100A34656
:1017A00004EBDB71491001FB0561009088B209F17F
:1017B0003001CAB223460399FFF764FE00BF681CDC
:1017C000C5B2BD42AFDB06B0BDE8F08F10B5044630
:1017D00000F050FA20210C48FFF7F1FC40210A48A4
:1017E000FFF7EBFC80210848FFF7E7FC214607489C
:1017F000FFF7E7FC80210448FFF7E1FC8021024865
:10180000FFF7DBFC10BD0000000C0140001C014094
:1018100010B5044600F02EFA20210C48FFF7CDFC4D
:1018200040210A48FFF7C9FC80210848FFF7C5FCA2
:1018300021460748FFF7C5FC80210448FFF7BFFC9D
:1018400080210248FFF7B9FC10BD0000000C0140E8
:10185000001C01402DE9F04104460E4617460025C4
:101860000EB1C02500E08025E819C5B208E0284681
:10187000FFF7CEFF2078FFF7A9FF681CC5B2641CF4
:1018800020780028F3D1BDE8F081000001490880EC
:1018900070470000FE07006C014908807047000097
:1018A0000008006C01490880704700000008006CC7
:1018B00008B50121482000F053F92020ADF80000C0
:1018C00010208DF8030003208DF8020069460948B6
:1018D000FFF796FB20210748FFF771FC2020ADF8A9
:1018E000000069460448FFF78BFB20210248FFF700
:1018F00066FC08BD000C01400018014070B50024D2
:10190000002508E00620FFF75FFC0444052001F0F5
:1019100021FA681CC5B20A2DF4DB0A20B4FBF0F4EE
:10192000B4F57A6F01D94FF47A642820B4FBF0F053
:10193000C0F16400C0B270BD00B587B00121802045
:1019400000F00EF90121C80300F00AF90121C803D3
:1019500000F016F900214FF4004000F011F94FF4A7
:101960008070ADF8180000208DF81B0006A91848FB
:10197000FFF746FB1748FEF717FD002001908DF892
:1019800008008DF809004FF46020039000200490B7
:1019900001208DF8140001A90E48FEF755FD012124
:1019A0000C48FEF7EBFC0B48FEF7D2FD00BF0948E0
:1019B000FEF73FFD0028FAD10648FEF7D9FD00BF2B
:1019C0000448FEF71FFD0028FAD107B000BD000053
:1019D000001C0140003C014000BFFEE70EB50121A4
:1019E000084600F0BDF802210420FFF7BBFA0321EE
:1019F0000420FFF7B7FA04210846FFF7B3FA0021E5
:101A00000846FFF7AFFA06208DF8080002208DF88F
:101A1000090003208DF80A0001208DF80B0002A8B0
:101A200000F04AF808208DF8080002208DF809001F
:101A30008DF80A0001208DF80B0002A800F03CF898
:101A400009208DF8080002208DF8090001208DF88A
:101A50000A008DF80B0002A800F02EF80A208DF87D
:101A6000080002208DF8090000208DF80A000120EE
:101A70008DF80B0002A800F01FF801200090002054
:101A80008DF8040008208DF8050001208DF806006F
:101A90006846FFF7DDF81C20009000208DF8040058
:101AA0000C208DF8050001208DF806006846FFF730
:101AB000CFF80EBD7047000070B5002100230F2243
:101AC000C47804B3154C246804F4E064C4F5E064FD
:101AD000210AC1F10403CA40447804FA03F184786E
:101AE0001440214309010E4C0678A155047804F0F6
:101AF0001F050124AC4005786D11AD0005F1E0250E
:101B0000C5F8004109E0047804F01F050124AC4049
:101B1000044D0678761145F8264070BD0CED00E0C6
:101B200000E400E080E100E002490143024A116064
:101B3000704700000000FA050CED00E0704700005F
:101B400029B1064A52690243044B5A6104E0034A30
:101B500052698243014B5A617047000000100240F5
:101B600029B1064A92690243044B9A6104E0034A90
:101B700092698243014B9A61704700000010024055
:101B800029B1064AD2680243044BDA6004E0034AF2
:101B9000D2688243014BDA607047000000100240B7
:101BA00030B500210022002400232D4D6D6805F082
:101BB0000C0121B1042905D0082923D105E0294DC4
:101BC000056022E0274D05601FE0254D6D6805F496
:101BD0007012234D6D6805F48034022505EB9242A6
:101BE0001CB9214D554305600BE01D4D6D6805F492
:101BF00000351DB11C4D5543056002E0194D55439C
:101C0000056002E0174D056000BF00BF144D6D6810
:101C100005F0F0010909154D6B5C0568DD40456074
:101C20000F4D6D6805F4E061090A104D6B5C456865
:101C3000DD4085600A4D6D6805F46051C90A0B4DA1
:101C40006B5C4568DD40C560054D6D6805F440413D
:101C5000890B074D6B5CC568B5FBF3F5056130BDBD
:101C60000010024000127A0000093D003A000020F6
:101C70004A00002008B5FF211A48FFF7A2FA802089
:101C8000ADF8000004208DF8030003208DF8020059
:101C900069461448FFF7B4F920211348FFF78DFA7D
:101CA00040211148FFF78BFA80210F48FFF787FA90
:101CB00000BF80210B48FFF777FA0028F9D1802177
:101CC0000948FFF77AFAFF20ADF8000010208DF8E0
:101CD000030003208DF8020069460248FFF790F9DF
:101CE00008BD0000001C0140000C014070B59AB016
:101CF00005460E4668216846FEF73FFA002400BFFD
:101D0000FFF760F800BF08E035F8240000216A46BC
:101D100002EBC40203C2601CC4B2B442F4DBFFF79E
:101D200027F840F2E933DDE910105940014317D19B
:101D30000C49009808600C49029808600B49049807
:101D400008600B49069808600A49089808600A4923
:101D50000A98086009490C98086009490E980860BB
:101D60001AB070BD080000200C00002010000020F8
:101D700014000020180000201C000020200000207B
:101D800024000020704710B500F002F810BD0000DC
:101D90000CB50020019000903348006840F480307A
:101DA0003149086000BF3048006800F400300090FE
:101DB0000198401C0190009818B90198B0F5A06FE7
:101DC000F1D12948006800F4003010B101200090E2
:101DD00001E0002000900098012843D123480068CA
:101DE00040F01000214908600846006820F0030018
:101DF00008600846006840F0020008601A48406821
:101E0000194948600846406848600846406840F400
:101E1000806048600846406820F47C1048600846AE
:101E2000406840F4E81048600846006840F0807060
:101E3000086000BF0C48006800F000700028F9D06E
:101E40000948406820F00300074948600846406898
:101E500040F00200486000BF0348406800F00C00FA
:101E60000828F9D10CBD00000010024000200240FB
:101E7000042808D14FF0E021096941F004014FF036
:101E8000E022116107E04FF0E021096921F004012F
:101E90004FF0E022116170477047000010B5044612
:101EA0006FF00400FFF7E4FFE11704EB5171C1F399
:101EB000C701074A11701046007800EB4001C1EBE2
:101EC000C0104FF6FF7101EAC0000249088010BD42
:101ED0005A0000205C00002010B51348006840F054
:101EE00001001149086008464068104908400E4941
:101EF0004860084600680E4908400B4908600846DB
:101F0000006820F4802008600846406820F4FE0045
:101F100048604FF41F008860FFF735FF4FF0006006
:101F20000449086010BD0000001002400000FFF8E6
:101F3000FFFFF6FE08ED00E000B59DB001210802AC
:101F4000FFF7FEFD01200790002008900F20099068
:101F500000200A900B900C900D901520009001909D
:101F60000520029000200390049005900690062022
:101F70000E9000200F9010901020119000201290D1
:101F800014901390159016904FF4805017900020E5
:101F900018904FF48040199000201A9007A81B90C9
:101FA000CDF870D00EA8FEF769FF01210620FEF7DC
:101FB0004BFF1DB000BD000008B501214FF4B47007
:101FC000FFF7CEFD4CF23370ADF8000018208DF80D
:101FD000030003208DF8020069461848FFF710F847
:101FE0004FF68070ADF8000018208DF80300032034
:101FF0008DF8020069461248FFF702F841F201002D
:10200000ADF8000018208DF8030003208DF80200C1
:1020100069460C48FEF7F4FF0120ADF800001020DF
:102020008DF8030003208DF8020069460648FEF78C
:10203000E7FF01200549086008BD000000140140C9
:102040000018014000200140000C01408081214225
:1020500010B5FFF7B1FFFFF76FFF322000F07AFEF7
:10206000D320FFF713FCA3480088A3498880A14828
:10207000008888809F4800888880084680884FF6BE
:10208000FF7101EA00209C498880084680889949B0
:1020900009880843984988800846818897A000F0FD
:1020A0001FFBFF20FFF7F2FBFF20FFF7EFFB0520F0
:1020B00000F050FEFF20FFF7E9FBFF20FFF7E6FBF3
:1020C000FF20FFF7E3FBFF20FFF7E0FB0A2000F013
:1020D00041FEB020FFF7DAFB0020FFF7DDFBB32065
:1020E000FFF7D4FB0220FFF7D7FB0020FFF7D4FB5C
:1020F0000020FFF7D1FB0020FFF7CEFBC020FFF749
:10210000C5FB1320FFF7C8FB3B20FFF7C5FB0020F2
:10211000FFF7C2FB0020FFF7BFFB0020FFF7BCFB6F
:102120000120FFF7B9FB0020FFF7B6FB4320FFF7C4
:10213000B3FBC120FFF7AAFB0820FFF7ADFB1B2074
:10214000FFF7AAFB0820FFF7A7FB0820FFF7A4FB77
:10215000C420FFF79BFB1120FFF79EFB0120FFF738
:102160009BFB7320FFF798FB0120FFF795FBC62030
:10217000FFF78CFB0020FFF78FFBC820FFF786FBE3
:102180000F20FFF789FB0520FFF786FB1420FFF7E0
:1021900083FB5C20FFF780FB0320FFF77DFB07201C
:1021A000FFF77AFB0720FFF777FB1020FFF774FBA0
:1021B0000020FFF771FB2320FFF76EFB1020FFF7D5
:1021C0006BFB0720FFF768FB0720FFF765FB532039
:1021D000FFF762FB0C20FFF75FFB1420FFF75CFBAF
:1021E0000520FFF759FB0F20FFF756FB2320FFF7D1
:1021F00053FB0020FFF750FB3520FFF747FB002083
:10220000FFF74AFB4420FFF741FB0020FFF744FBA8
:102210000120FFF741FBD020FFF738FB0720FFF735
:102220003BFB0720FFF738FB1D20FFF735FB0320A2
:10223000FFF732FBD120FFF729FB0320FFF72CFB30
:102240005B20FFF729FB1020FFF726FBD220FFF7CA
:102250001DFB0320FFF720FB2420FFF71DFB0420BC
:10226000FFF71AFB2A20FFF711FB0020FFF714FBF2
:102270000020FFF711FB0120FFF70EFB3F20FFF7C7
:102280000BFB2B20FFF702FB0020FFF705FB0020D4
:10229000FFF702FB0120FFF7FFFADF20FFF7FCFA50
:1022A0003620FFF7F3FA0020FFF7F6FAC020FFF719
:1022B000EDFA1320FFF7F0FA3A20FFF7E7FA55207E
:1022C000FFF7EAFA1120FFF7E1FA962000F042FD4D
:1022D0002920FFF7DBFA1E2000F03CFD2C20FFF741
:1022E000D5FA0020FFF71EF84FF6FF70FEF7F6FF55
:1022F00010BD00000008006C52000020204C434438
:102300002049443A25780D0A0000000010B540F23B
:1023100025511D4800F0B8F810B31B4800F070F9C3
:10232000C4B21A48008800F40040C8B917480088B1
:1023300000F4804060B10A2C03D0002013490880CB
:1023400020E01248008840F400401049088019E05D
:102350000D2C06D10D48008840F480400B490880C0
:1023600010E00A480088C0F30D0009490C540748E2
:102370000088401C0549088008460088C72801DD00
:102380000020088010BD0000003801405E000020E1
:102390008800002010B586B0044601210420FFF714
:1023A000DFFB01218803FFF7DBFB4FF40070ADF882
:1023B000140003208DF8160018208DF8170005A9C9
:1023C0001E48FEF71DFE4FF48060ADF81400042097
:1023D0008DF8170005A91948FEF712FE0194002098
:1023E000ADF80800ADF80A00ADF80C00ADF810002B
:1023F0000C20ADF80E0001A9114800F095F801215C
:102400000F4800F028F840210D4800F01BF8012289
:1024100040F225510A4800F061F825208DF80000AF
:1024200003208DF801008DF8020001208DF80300D3
:102430006846FFF741FB06B010BD000000080140F0
:102440000038014001F40072B2F5007F00D100BFF6
:10245000CA430280704721B1828942F400528281CE
:1024600004E082894DF6FF731A408281704702466C
:102470000020B1F5007F00D100BF13880B400BB1E5
:10248000012000E00020704770B5024600240023C0
:102490000025002040F66A16B14200D100BFC1F30A
:1024A000421501F01F03012606FA03F3012D02D1A4
:1024B0009689334006E0022D02D1168A334001E0AE
:1024C000968A33400C12012606FA04F4168834402A
:1024D00013B10CB1012000E0002070BDF0B503463F
:1024E000002400260025002040F66A17B94200D1DA
:1024F00000BF1846C1F3421401F01F06012707FA76
:1025000006F5012C01D10C3004E0022C01D1103071
:1025100000E014301AB107682F43076002E0076833
:10252000AF430760F0BD00002DE9F04786B00546D7
:102530000E460024A24600BFA1460027B08900B184
:1025400000BF2F462C8A4CF6FF700440F0880443ED
:102550002C82AC894EF6F3100440B08831890843D0
:10256000718908430443AC81AC8A4FF6FF400440B4
:10257000B0890443AC8201A8FFF712FB1F488742D1
:1025800002D1DDF810A001E0DDF80CA0A88900F46C
:10259000004040B10AEBCA0000EB0A103168490064
:1025A000B0FBF1F807E00AEBCA0000EB0A10316853
:1025B0008900B0FBF1F86420B8FBF0F004012009B9
:1025C000642101FB1089A88900F4004040B1322049
:1025D00000EBC900B0FBF1F000F00700044308E095
:1025E000322000EB09106421B0FBF1F000F00F0085
:1025F00004432C8106B0BDE8F0870000003801409C
:1026000001468888C0F308007047C1F30802828041
:102610007047000010B513480068012818D0022840
:1026200004D0032808D0042818D10BE00E48006815
:10263000401C0D49086011E00C480068401C0B4923
:1026400008600BE00A480068401C0949086005E082
:1026500008480068401C0749086000BF00BF00F040
:10266000C5FB10BD2800002010000020080000203D
:10267000180000202000002010B513480068012831
:1026800018D0022804D0032808D0042818D10BE061
:102690000E480068401E0D49086011E00C480068B3
:1026A000401E0B4908600BE00A480068401E0949BB
:1026B000086005E008480068401E0749086000BF40
:1026C00000BF00F093FB10BD280000201000002088
:1026D00008000020180000202000002000BFFEE7B6
:1026E0000FB4054B10B503A9044A029800F02CF86A
:1026F00010BC5DF814FB00000530000860000020ED
:102700000FB4084B10B504A902AA039800F01CF8F6
:10271000044602A9002000F077F9204610BC5DF8BD
:1027200014FB0000092A000802E008C8121F08C1B3
:10273000002AFAD170477047002001E001C1121F42
:10274000002AFBD1704700002DE9FF4F8DB09B465A
:102750000F460446002606E025280BD05A460F995E
:102760009047641C761C20780028F5D111B03046C3
:10277000BDE8F08F0025A8460122984900E00543F6
:1027800014F8013F203B02FA03F00842F7D1207809
:102790002E2817D114F8010F45F004052A280ED071
:1027A0006FF02F022078A0F1300109290AD808EB38
:1027B000880102EB410100EB0108641CF2E757F8C5
:1027C000048B641C20786C280DD004DC4C2812D0BB
:1027D0006A2811D104E074280DD07A280CD10AE0BF
:1027E00045F4001507E0617845F48015814202D177
:1027F000641C05F58015641C2078692844D008DC29
:102800000028B3D0582867D063280FD0642808D197
:102810003AE0702865D0732812D075285AD07828ED
:102820005AD05A460F999047761CD5E017F8040BFA
:102830008DF8000000208DF80100E946012003E03A
:1028400057F8049B4FF0FF3069074FF0000501D4A3
:102850000AE06D1C45450DDA8542FADB19F80510D2
:102860000029F6D106E06D1C8542FCDB19F8051045
:102870000029F8D12E4404E019F8010B5A460F99AB
:1028800090476D1EF8D2A7E00A200021CDE908018B
:10289000C5F3025002280CD001CFC117021E71F1FE
:1028A00000020CDA0023D0EB030063EB01012D22C0
:1028B00008E0FF1D27F00707F7E80201EEE72A0509
:1028C00004D52B228DF8282001223CE0EA073AD0DB
:1028D0002022F7E70A2000E010200021CDE90801BE
:1028E00007E01020002145F00405CDE908014FF074
:1028F0000808C5F30250022810D001CF00214FF084
:10290000000A2A0720D52278702A0DD0DDE908C3F5
:102910008CF0100C5CEA030C0CD015E0FF1D27F0C6
:102920000707F7E80201EAE740228DF828204FF078
:10293000010A0CE050EA010306D030238DF828305C
:102940008DF82920022292462278582A04D024A207
:102950000DF120090B9209E026A2F9E7DDE9082331
:10296000FDF716FC0B9B9B5C09F8013D50EA010248
:10297000F4D1ADEB090020300890680701D44FF086
:1029800001080899884503DD0898A8EB000000E0DD
:1029900000208046002506E00AA85A46405D0F99AF
:1029A00090476D1C761C5545F6DB04E030205A46F6
:1029B0000F999047761CB8F10001A8F10108F5DCE9
:1029C00005E019F8010B5A460F999047761C0899B3
:1029D000481E08900029F4DC641CC4E609280100A4
:1029E0003031323334353637383961626364656685
:1029F0000000000030313233343536373839414247
:102A000043444546000000000A68531C0B601070E8
:102A10007047000010B50446012C06D0022C0BD0E4
:102A2000032C10D0042C1CD114E017A24FF4CD714C
:102A30000A20FEF7C5FD14E017A24FF4CD710A205D
:102A4000FEF7BEFD0DE018A24FF4CD710A20FEF78F
:102A5000B7FD06E018A24FF4CD710A20FEF7B0FDD5
:102A600000BF00BF0120184908601849C1F8A00143
:102A70004FF47A7000F06EF900201549086015498E
:102A8000C1F8A00110BD0000CAAAB6C8B3ACB9FD18
:102A9000C9CFCFDE00000000CEC2B6C8B3ACB9FDCE
:102AA000C9CFCFDE00000000CBAECEBBB3ACB9FDCA
:102AB000C9CFCFDE00000000C1C1B6C8B3ACB9FDBC
:102AC000C9CFCFDE00000000A001244200802142D7
:102AD000A08121420000244210B50446012C06D0FA
:102AE000022C0BD0032C10D0042C1CD114E017A204
:102AF0004FF4CD710A20FEF763FD14E017A24FF4E6
:102B0000CD710A20FEF75CFD0DE018A24FF4CD71E7
:102B10000A20FEF755FD06E018A24FF4CD710A20F9
:102B2000FEF74EFD00BF00BF01201849086018499C
:102B3000C1F8A0014FF47A7000F00CF9002015499B
:102B400008601549C1F89C0110BD0000CAAAB6C8AA
:102B5000B5CDD3DACFC2CFDE00000000CEC2B6C8FA
:102B6000B5CDD3DACFC2CFDE00000000CBAECEBBF6
:102B7000B5CDD3DACFC2CFDE00000000C1C1B6C8E8
:102B8000B5CDD3DACFC2CFDE000000009C012442D5
:102B900000802142A08121420000244210B51E483D
:102BA0000068012806D0022810D003281AD0042873
:102BB0002ED123E019A24FF496710A20FEF700FDF2
:102BC00015480068401C1449086021E017A24FF422
:102BD00096710A20FEF7F4FC0F480068401C0E496D
:102BE000086015E015A24FF496710A20FEF7E8FC84
:102BF00009480068401C0849086009E013A24FF426
:102C000096710A20FEF7DCFC01200349086000BF32
:102C100000BF00F0EBF810BD28000020CAAAB6C81B
:102C2000B7B6CEA7B5F7BDDA00000000CEC2B6C871
:102C3000B7B6CEA7B5F7BDDA00000000CBAECEBB6D
:102C4000B7B6CEA7B5F7BDDA00000000C1C1B6C85F
:102C5000B7B6CEA7B5F7BDDA000000001CB5044634
:102C60003148204400284BD0B0F5FF5F0CD0A0F5D0
:102C7000BE40A03828B1A0F5BE40A038002851D1F0
:102C800047E0FFF78BFF4DE02848006801281BD183
:102C900000202649086026A01821CDE9001026480A
:102CA000438802884FF4BE71C820FEF7FDFC23A0C4
:102CB0001821CDE900102048438802884FF4BE71E6
:102CC0003C20FEF7F1FC1AE00120184908601DA025
:102CD0001821CDE900101848438802884FF4BE71CE
:102CE0003C20FEF7E1FC19A01821CDE900101248A4
:102CF000438802884FF4BE71C820FEF7D5FC11E06E
:102D00000A48006810B900F04BF901E0FFF7B4FC85
:102D100008E00648006810B900F010F901E0FFF77C
:102D200079FC00BF00BF1CBD03FD00FF2C0000208C
:102D30002020202020202000520000205F5F5F5FC5
:102D40005F5F000020202020202000005F5F5F5F89
:102D50005F5F5F000146114A12884A434FF0E0234B
:102D60005A6100229A611A46126942F001021A6100
:102D700000BF4FF0E022106900F001021AB100F428
:102D80008032002AF5D04FF0E022126922F00102D1
:102D90004FF0E0231A6100229A6170475C00002026
:102DA0000146114A12784A434FF0E0235A6100224B
:102DB0009A611A46126942F001021A6100BF4FF08F
:102DC000E022106900F001021AB100F48032002AFA
:102DD000F5D04FF0E022126922F001024FF0E0231B
:102DE0001A6100229A6170475A0000201CB54848B9
:102DF0000068012851D0022804D003281BD00428E1
:102E000064D131E0002020210523CDE900104148A4
:102E10004FF4AF7102681E20FEF779FC00202021DC
:102E20000523CDE900103C484FF4AF710268B4208F
:102E3000FEF76DFC4AE0002020210523CDE90010BB
:102E400036484FF4AF7102681E20FEF760FC002088
:102E500020210523CDE9001031484FF4AF710268FD
:102E6000B420FEF754FC31E0002020210523CDE9F9
:102E700000102C484FF4AF7102681E20FEF747FC8B
:102E8000002020210523CDE9001027484FF4AF7121
:102E90000268B420FEF73BFC18E000202021052347
:102EA000CDE9001021484FF4AF7102681E20FEF7F3
:102EB0002EFC002020210523CDE900101C484FF4F2
:102EC000AF710268B420FEF722FC00BF00BF1448B7
:102ED0000068184908601148006848600E4800689A
:102EE00088600C480068C8600F48006808610D4899
:102EF000006848610E48006888610C480068C86135
:102F000040F2E930086209220B48FDF77AFF1CBD48
:102F10002800002014000020100000200C000020D9
:102F2000080000201C0000201800002024000020C1
:102F300020000020640000200000070810B513489E
:102F40000068012818D0022804D0032808D00428DB
:102F500018D10BE00E480068401C0D49086011E0D4
:102F60000C480068401C0B4908600BE00A480068E8
:102F7000401C0949086005E008480068401C0749F2
:102F8000086000BF00BFFFF731FF10BD2800002020
:102F9000140000200C0000201C0000202400002051
:102FA00010B513480068012818D0022804D003285F
:102FB00008D0042818D10BE00E480068401E0D49C7
:102FC000086011E00C480068401E0B4908600BE0E7
:102FD0000A480068401E0949086005E00848006882
:102FE000401E0749086000BF00BFFFF7FFFE10BD8D
:102FF00028000020140000200C0000201C000020ED
:103000002400002070B504460D46E1B20548FFF7E4
:10301000FCFA00BF80210348FFF729FA0028F9D005
:10302000204670BD0038014010B501210802FEF7AE
:1030300097FD4FF4FC700F4908801020C8700320E2
:1030400088700D48FDF7DCFF10210B48FEF7B7F83C
:1030500008210948FEF7B3F820210748FEF7AFF82A
:1030600080210548FEF7A9F84FF480710248FEF769
:10307000A4F810BD3600002000200140C4B000BFFD
:1030800000BF00BFDF244FF4807102A8FDF775F880
:1030900000BF00BF4820FEF701FF4FF4A060FEF71D
:1030A00043FDFEF705FC4FF4E130FFF773F9FEF73F
:1030B000CFFFFFF7B9FFFDF7E1F8FEF7F1F80020C9
:1030C000D9490880FDF75AFAFEF788FC0921D7484C
:1030D000FEF70CFEFEF758F9FEF72EFCFEF7A8F8F7
:1030E000FFF75CFDD248006801281BD10020D049C1
:1030F0000860D0A01821CDE90010D048438802888C
:103100004FF4BE71C820FEF7CFFACDA01821CDE94B
:103110000010CA48438802884FF4BE713C20FEF775
:10312000C3FA1AE00120C2490860C7A01821CDE9FE
:103130000010C248438802884FF4BE713C20FEF75D
:10314000B3FAC3A01821CDE90010BC484388028817
:103150004FF4BE71C820FEF7A7FAFDF77DFB58B902
:10316000BDA02021CDE90010B448438802880A217F
:103170000846FEF799FA0AE0B9A02021CDE900102F
:10318000AE48438802880A210846FEF78DFAB6A2A7
:103190003C210A20FEF714FAB5A26E210A20FEF7A0
:1031A0000FFAB5A2A0210A20FEF70AFAB4A2D22192
:1031B0000A20FEF705FAB4A02021CDE900109F48AF
:1031C000438802883C21D220FEF76EFAAFA020216E
:1031D000CDE900109948438802886E21D220FEF77D
:1031E00063FA1FE10020AA490860FDF735FB42A8F9
:1031F000FDF7DAFA78B94FF4FC608B490880A5A096
:103200002021CDE900108D48438802880A21084614
:10321000FEF74AFA0EE04FF4784083490880A1A0F7
:103220002021CDE900108548438802880A210846FC
:10323000FEF73AFA00207C4908809DF808410022F8
:1032400011469CA0FEF706FB22469CA102A8FFF7B0
:1032500057FA0422002102A8FEF7FCFA98480068F9
:10326000844205DDFF2C03D00120FFF7D3FB06E0ED
:1032700094480068844202DA0120FFF72DFC002008
:1032800069490880202105232246CDE900103C2110
:103290007820FEF73CFA9DF80A41002201218AA01D
:1032A000FEF7D8FA224685A102A8FFF729FA0422E0
:1032B000012102A8FEF7CEFA85480068844205DDA8
:1032C000FF2C03D00220FFF7A5FB06E08148006831
:1032D000844202DA0220FFF7FFFB002052490880F7
:1032E000202105232246CDE900106E217820FEF72B
:1032F0000EFA7948008840F2253148434FF47A713C
:1033000090FBF1F0C4B20822012174A0FEF7A2FAEA
:1033100022466AA102A8FFF7F3F90C22012102A8B4
:10332000FEF798FA6F480068844203DD0320FFF738
:1033300071FB06E06C480068844202DA0320FFF764
:10334000CBFB002038490880202105232246CDE907
:103350000010A0217820FEF7DAF95F48408840F29B
:10336000253148434FF47A7190FBF1F0FEF7C6FA2D
:1033700005462C46082200215CA0FEF76BFA224687
:103380004EA102A8FFF7BCF90C22002102A8FEF70B
:1033900061FA58480068844203DD0420FFF73AFBD5
:1033A00006E055480068844202DA0420FFF794FBE7
:1033B00000201D490880202105232246CDE9001068
:1033C000D2217820FEF7A3F90120314908601021AD
:1033D0004A48FDF7F4FE4FF47A70FFF7BBFC10216A
:1033E0004648FDF7EAFE4FF47A70FFF7B3FC44A0BD
:1033F0001821CDE900101148438802884FF4CD719F
:103400000A20FEF751F93EA01821CDE900100B4823
:10341000438802884FF4D2710A20FEF745F9012053
:10342000FEF7F6F9DEE600004E0000200000070877
:103430002C000020202020202020200052000020EE
:103440005F5F5F5F5F5F0000202020202020000082
:103450005F5F5F5F5F5F5F007375636365737300DA
:103460006661696C00000000CAAAB6C800000000CE
:10347000CEC2B6C800000000CBAECEBB000000003C
:10348000C1C1B6C8000000002500000043000000D4
:103490008C012442537563636573732020726561E8
:1034A000640000006661696C202020202072656144
:1034B0006400000068756D3A00000000256400009B
:1034C000100000201400002054656D3A0000000038
:1034D000080000200C000020020000205761743A10
:1034E00000000000180000201C0000204C69673A12
:1034F00000000000200000202400002000200140E7
:1035000020202020202020202020202020202020BB
:1035100020202020202020202020202020202000CB
:10352000000000000000000000000000000000009B
:103530003F4000000000000000003000400030006C
:103540004000000009000BC03D000BC03D00090019
:1035500018C024407FE0224031800000180024C0C1
:103560001B000D803240018003801C4027401C80DE
:103570000740004010006000000000000000000054
:103580000000000000001F8020404020000040207C
:1035900020401F8000000000090006001F80060078
:1035A00009000000040004003F8004000400000043
:1035B0000010006000000000000000000400040093
:1035C00004000400040000000000004000000000AF
:1035D00000000000002001C006003800400000008C
:1035E0001F802040204020401F800000000010402D
:1035F0003FC000400000000018C02140224024408D
:103600001840000010802040244024401B8000000F
:1036100002000D0011003FC0014000003C8024402A
:1036200024402440238000001F8024402440344054
:10363000038000003000200027C038002000000078
:103640001B802440244024401B8000001C0022C01A
:10365000224022401F8000000000000008400000BF
:1036600000000000000000000460000000000000F6
:10367000000004000A0011002080404009000900F9
:1036800009000900090000000000404020801100EE
:103690000A00040018002000234024001800000045
:1036A0001F802040274029401F400000004007C0E5
:1036B00039000F0001C0004020403FC0244024409A
:1036C0001B8000001F8020402040204030800000F0
:1036D00020403FC0204020401F80000020403FC0CD
:1036E00024402E4030C0000020403FC024402E0027
:1036F000300000000F001080204022403380020084
:1037000020403FC0040004003FC020402040204033
:103710003FC02040204000000060202020203FC00B
:103720002000200020403FC024400B0030C020403B
:1037300020403FC020400040004000C03FC03C004F
:1037400003C03C003FC0000020403FC00C402300AD
:103750003FC020001F802040204020401F800000EC
:1037600020403FC024402400180000001F8021405A
:10377000214020E01FA0000020403FC02440260040
:1037800019C0004018C0244024402240318000006D
:10379000300020403FC020403000000020003F802B
:1037A000004000403F80200020003E0001C0070094
:1037B00038002000380007C03C0007C03800000077
:1037C000204039C0060039C02040000020003840A9
:1037D00007C0384020000000304021C0264038405B
:1037E00020C00000000000007FE0402040200000DA
:1037F000000070000C00038000400000000040202A
:1038000040207FE000000000000020004000200079
:103810000000000000100010001000100010001048
:1038200000000000400000000000000000000280D6
:103830000540054003C0004020003FC00440044054
:1038400003800000000003800440044006400000A4
:1038500000000380044024403FC00040000003807B
:103860000540054003400000000004401FC0244004
:1038700024402000000002E00550055006500420BE
:1038800020403FC00440040003C00040000004404A
:1038900027C000400000000000100010041027E0C6
:1038A0000000000020403FC00140070004C0044069
:1038B000204020403FC000400040000007C00400FE
:1038C00007C0040003C00000044007C00440040017
:1038D00003C0004000000380044004400380000057
:1038E000041007F00450044003800000000003802F
:1038F0000440045007F00010044007C002400400D8
:1039000004000000000006400540054004C000001F
:10391000000004001F8004400040000004000780F5
:103920000040044007C000400400070004C00180BC
:1039300006000400060001C0070001C006000000E8
:10394000044006C0010006C0044000000410071037
:1039500004E00180060004000000044005C00640A9
:10396000044000000000000004007BE04020000054
:10397000000000000000FFF00000000000004020F8
:103980007BE00400000000004000800040002000B8
:1039900020004000000000000000000000000000C7
:1039A000000000000000000000001FCC000C000020
:1039B0000000000000000800300060000800300037
:1039C00060000000022003FC1E20022003FC1E20D9
:1039D0000220000000000E1811043FFF10840C7834
:1039E000000000000F0010840F3800C00778188412
:1039F0000078000000780F8410C411240E9800E4B1
:103A0000008400080800680070000000000000004A
:103A10000000000000000000000007E0181820046B
:103A200040020000000040022004181807E00000D7
:103A3000000000000240024001800FF001800240BF
:103A4000024000000080008000800FF800800080AD
:103A5000008000000001000D000E000000000000CA
:103A600000000000000000800080008000800080D6
:103A7000008000800000000C000C0000000000002E
:103A80000000000000000006001800600180060031
:103A900018002000000007F00808100410040808AF
:103AA00007F000000000080408041FFC00040004E4
:103AB0000000000000000E0C1014102410441184AB
:103AC0000E0C000000000C181004110411041288E0
:103AD0000C700000000000E00320042408241FFCF8
:103AE0000024000000001F981084110411041088A5
:103AF00010700000000007F00888110411041888F5
:103B00000070000000001C00100010FC13001C00DE
:103B10001000000000000E3811441084108411447D
:103B20000E38000000000700088C1044104408887C
:103B300007F00000000000000000030C030C000070
:103B4000000000000000000000010106000000006D
:103B5000000000000000008001400220041008085E
:103B60001004000002200220022002200220022075
:103B70000220000000001004080804100220014088
:103B80000080000000000E001200100C106C10806D
:103B90000F00000003E00C1813E4142417C40828D5
:103BA00007D000000004003C03C41C40074000E4B0
:103BB000001C000410041FFC1104110411040E88E1
:103BC0000070000003E00C1810041004100410082A
:103BD0001C10000010041FFC10041004100408083E
:103BE00007F0000010041FFC1104110417C4100496
:103BF0000818000010041FFC1104110017C0100069
:103C00000800000003E00C181004100410441C7895
:103C10000040000010041FFC10840080008010840D
:103C20001FFC10040000100410041FFC10041004FA
:103C30000000000000030001100110011FFE100031
:103C40001000000010041FFC110403801464181CF1
:103C50001004000010041FFC100400040004000401
:103C6000000C000010041FFC1F0000FC1F001FFCC4
:103C70001004000010041FFC0C04030000E01018E6
:103C80001FFC100007F008081004100410040808B6
:103C900007F0000010041FFC1084108010801080BA
:103CA0000F00000007F0081810241024101C080A48
:103CB00007F2000010041FFC1104110011C01130A4
:103CC0000E0C000400000E1C11041084108410441B
:103CD0001C3800001800100010041FFC1004100015
:103CE0001800000010001FF8100400040004100465
:103CF0001FF8100010001E0011E0001C007013805F
:103D00001C0010001FC0103C00E01F0000E0103C31
:103D10001FC000001004180C163401C001C0163476
:103D2000180C100410001C00130400FC13041C00E9
:103D3000100000000804101C1064108413041C04FC
:103D4000101800000000000000007FFE400240024A
:103D500040020000000030000C0003800060001CE6
:103D60000003000000004002400240027FFE00000D
:103D70000000000000000000200040004000400063
:103D8000200000000001000100010001000100010D
:103D90000001000100004000400020000000000081
:103DA0000000000000000098012401440144014487
:103DB00000FC000410001FFC0088010401040088BE
:103DC000007000000000007000880104010401047C
:103DD0000088000000000070008801040104110840
:103DE0001FFC0004000000F80144014401440144A8
:103DF00000C800000000010401040FFC11041104BC
:103E000011001800000000D601290129012901C96B
:103E10000106000010041FFC0084010001000104E1
:103E200000FC000400000104190419FC0004000453
:103E3000000000000000000300010101190119FE4B
:103E40000000000010041FFC0024004001B4010C1D
:103E5000010400000000100410041FFC0004000412
:103E600000000000010401FC0104010001FC010448
:103E7000010000FC010401FC0084010001000104B8
:103E800000FC0004000000F8010401040104010426
:103E900000F80000010101FF008501040104008811
:103EA000007000000000007000880104010401059A
:103EB00001FF00010104010401FC00840104010070
:103EC00001800000000000CC012401240124012411
:103ED0000198000000000100010007F8010401043E
:103EE00000000000010001F80004000400040108C3
:103EF00001FC0004010001800170000C0010016051
:103F00000180010001F0010C003001C00030010C03
:103F100001F0010000000104018C00740170018CAB
:103F200001040000010101810171000E001801600F
:103F30000180010000000184010C0134014401846E
:103F4000010C0000000000000000000001003EFC29
:103F5000400240020000000000000000FFFF0000DF
:103F6000000000000000400240023EFC0100000092
:103F70000000000000006000800080004000400061
:103F800020002000000000000000000000000000F1
:103F90000000000000000000000000000000000021
:103FA0000000000000000000000000000000000011
:103FB000000000000000000F80380FFE380F80382E
:103FC00000000000000000000000000000000000F1
:103FD00000000100000600000C0000380000310065
:103FE000000600000C000038000030000000000057
:103FF0000000000061800067F807F9800061800020
:1040000061800061800061800067F807F9800061CD
:104010008000000000000000000001C0E003E0F0AC
:104020000630080418081FFFFE040E080787F00377
:1040300081E000000000000001F000060C00040414
:1040400008060C7001F9C0000E00003BE000EC18FF
:10405000070808040C180003E00000000001E0005D
:1040600007F003F818041C0804170807E1D003C080
:10407000E00023B0003C0800200800001000000011
:104080000000000100003100003200001C000000B0
:104090000000000000000000000000000000000020
:1040A0000000000000000000000000000000000010
:1040B000000000007F0001FFC00780F00C00181016
:1040C0000004200002000000000000200002100098
:1040D000040C00180780F001FFC0007F0000000002
:1040E00000000000000000000000000000000000D0
:1040F0004200006600006600003C0000180003FF5C
:10410000C0001800003C000066000066000042008D
:10411000000000000800000800000800000800007F
:10412000080001FFC00008000008000008000008A7
:104130000000080000000000000100003100003213
:1041400000001C0000000000000000000000000053
:10415000000000000000000000000000080000084F
:104160000000080000080000080000080000080027
:104170000008000008000008000000000000000027
:104180000000000038000038000038000000000087
:10419000000000000000000000000000000000001F
:1041A00000000000000600001C00007000018000FC
:1041B0000E0000380000C0000700001C00003000A6
:1041C00000000000000000007F8001FFE00380701D
:1041D0000600180400080400080600180380700197
:1041E000FFE0007F800000000000000000000100F0
:1041F0000801000801000803FFF807FFF8000008A5
:10420000000008000008000000000000000000019D
:10421000C03802C0580400980401180402180404AD
:1042200018061C1803F81801E0F800000000000050
:1042300000000001C0E003C0F00400080408080406
:10424000080806180803F41801E7F00001E0000070
:1042500000000000000000000300000D000011003D
:1042600000610000810803010807FFF80FFFF80054
:1042700001080001080000000000000000E007FC49
:10428000D006080806100806100806100806183898
:10429000060FF00607C0000000000000000000004C
:1042A0003F8001FFE0038430020818041008041066
:1042B00008041008071810030FF00007C0000000E2
:1042C00000000000000003C0000700000600000618
:1042D00000F80607F806180006E0000700000600D0
:1042E0000000000000000001E1E003F7F0063410D8
:1042F000041808041808040C08040C08061618030F
:10430000F3F001C1E000000000000000F80003FC31
:1043100030030638040208040208040208040410EA
:104320000308F001FFC0007F000000000000000053
:104330000000000000000000000000007038007065
:10434000380070380000000000000000000000008D
:10435000000000000000000000000000000000005D
:10436000301A00301C0000000000000000000000B7
:104370000000000000000000000000080000140021
:104380000022000041000080800100400200200463
:1043900000100800080000000000000021000021BB
:1043A0000000210000210000210000210000210068
:1043B000002100002100002100000000000000009A
:1043C00000000800080400100200200100400080E6
:1043D00080004100002200001400000800000000DE
:1043E00000000003C00004C00004000008003808FA
:1043F0000F380808380810000C300007E00003C030
:1044000000000000000000003F8000FFE00380701B
:10441000020F1006708804C088048308047F880295
:10442000C09003012000FE400000080000180001B9
:10443000F8003E0801C20007020007E20000FE008B
:10444000001FC80001F80000380000080400080739
:10445000FFF807FFF804080804080804080804081F
:104460000806180803F41801E7F00001E000000056
:10447000000000003F8001FFE0038070020018048C
:10448000000804000804000804001006002007804B
:10449000C000000004000807FFF807FFF804000848
:1044A00004000804000804001802001003807001D2
:1044B000FFE0007F8000000004000807FFF807FF0E
:1044C000F8040808040808040808040808043E085A
:1044D000040008060018010060000000040008073E
:1044E000FFF807FFF804080804080004080004089F
:1044F00000043E00060000060000018000000000ED
:10450000000000003F8001FFE003807006001804F7
:1045100000080402080402080203F00783F0000206
:104520000000020004000807FFF807FFF80408086D
:104530000008000008000008000008000408080740
:10454000FFF807FFF8040008000000000000040066
:104550000804000804000807FFF807FFF804000833
:104560000400080400080000000000000000000033
:10457000000600000700000104000104000104001F
:104580000307FFFE07FFFC04000004000004000016
:1045900004000807FFF807FFF8040C0800180000E3
:1045A0003E0004C7800503C80600F8040038040074
:1045B0001800000804000807FFF807FFF8040008C7
:1045C00000000800000800000800000800000800C3
:1045D000001800006000000004000807FFF80780D2
:1045E0000807FC00007FC00003F80007C000780047
:1045F00007800807FFF807FFF80400080400080711
:10460000FFF807000803C00000E000003800001EAB
:10461000000007000001C00400F007FFF8040000DC
:10462000000000007F8001FFE00380700600180496
:10463000000804000806001803003001FFE0007FB6
:104640008000000004000807FFF807FFF8040408D2
:10465000040400040400040400040400060C000325
:10466000F80001F000000000000000007F8001FF62
:10467000E00380700600880400880400C806003C3F
:1046800003003E01FFE6007F8400000004000807ED
:10469000FFF807FFF8040808040800040C00040FE2
:1046A00000040BC00610F003F03801E00800000819
:1046B00000000001E0F803F0300630100418080490
:1046C0001808040C08040C080206180207F00781F9
:1046D000E00000000180000600000400000400006B
:1046E00004000807FFF807FFF804000804000004AE
:1046F000000006000001800004000007FFE007FF43
:10470000F00400180000080000080000080000087D
:1047100000000804001007FFE00400000400000689
:10472000000007E00007FE00041FE00001F80000A1
:10473000380001E0043E0007C0000600000400004D
:1047400004000007E00007FFC0041FF80007C007CF
:10475000F80007FF80043FF80007C004F8000700D6
:104760000004000000000004000806001807C078DC
:1047700005F1C8003E00001F800463E80780F806CA
:104780000018040008000000040000060000078074
:104790000007E008047C08001FF80007F80018086C
:1047A00004E008070000060000040000000000010B
:1047B00000080600380400F80403E8040F08047C2D
:1047C0000805F00807C00807001804006000000092
:1047D0000000000000000000000000000000003F9A
:1047E000FFFE200002200002200002200002200024
:1047F00002000000000000000000080000070000A8
:1048000000C0000038000006000001C000003000B9
:10481000000E000001000000000000000000200069
:10482000022000022000022000022000023FFFFEC2
:104830000000000000000000000000000000000078
:104840000000000000080000100000300000200000
:104850000030000010000008000000000000000010
:104860000000010000010000010000010000010043
:104870000001000001000001000001000001000033
:104880000100000100000000000000000020000006
:1048900020000010000010000000000000000000D8
:1048A00000000000000000000000000000F00019FF
:1048B000F8001B1800220800260800240800241015
:1048C000003FF8001FF80000080000180000000476
:1048D000000007FFF80FFFF0001818001008002074
:1048E00008002008003018001FF0000FC000000072
:1048F0000000000007C0001FF00018300020080072
:104900002008002008003C08001C10000060000087
:10491000000000000000000007C0001FF000381871
:1049200000200800200800200804101007FFF80FDE
:10493000FFF0000010000000000000000000000771
:10494000C0001FF0001230002218002208002208C8
:10495000003208001E10000E2000000000000000C1
:10496000200000200800200801FFF803FFF80620BF
:1049700008042008042008072000030000000000AD
:1049800000000000000E000E6E001FF30031B100A9
:1049900020B10020B1003191001F13002E1E002015
:1049A0000E00300000000004000807FFF80FFFF8B9
:1049B000001008002000002000002008003FF80040
:1049C0001FF80000080000000000000000000020A8
:1049D00008002008002008063FF8063FF8000008FD
:1049E00000000800000800000000000000000000B7
:1049F000000000000300000300200100200100204F
:104A000003063FFE063FFC0000000000000000001F
:104A100000000004000807FFF80FFFF800018800FD
:104A20000300002FC00038F80020380020080000E4
:104A30000800000000000000000004000804000856
:104A400004000807FFF80FFFF80000080000080046
:104A50000008000000000000002008003FF8003FB0
:104A6000F8001008002000003FF8003FF800100890
:104A7000002000003FF8003FF800000800000000A0
:104A80002008003FF8003FF8001008001000002048
:104A900000002008003FF8001FF800000800000098
:104AA0000000000007C0000FF000183000300800C0
:104AB0002008002008003008001830000FF0000720
:104AC000C0000000000000002001003FFF003FFF89
:104AD00000101100200900200800200800303800D4
:104AE0001FF0000FC00000000000000007C0001F02
:104AF000F0003818002008002008002009001011DC
:104B0000001FFF003FFF0000010000000020080020
:104B10002008002008003FF8003FF80008080010B7
:104B200008002008002000003000003000000000D5
:104B3000000000000000000C78001E180033080080
:104B400023080021080021880021980030F0003857
:104B50006000000000000000200000200000200095
:104B600000FFF003FFF800200800200800200800E4
:104B70000030000000000000000000002000003FA6
:104B8000F0007FF800001800000800000800201066
:104B9000003FF8007FF0000010000000000000005F
:104BA0002000003000003C00003F800023F00000A7
:104BB00078000070002380003C00003000002000DE
:104BC000002000003C00003FE00023F80000E0006F
:104BD0002700003E00003FE00021F80001E0003E19
:104BE00000002000000000002008002008003838E5
:104BF000003E680027800003C8002CF80038380009
:104C000020180020080000000000000020000030F4
:104C100003003C01003F830023EC00007000238070
:104C2000003C000020000020000000000000000008
:104C300000000038080020380020F80023E8002F8A
:104C400088003E08003808002018000070000000AE
:104C50000000000000000000000000000000000054
:104C600008000014001FF7FC3000062000020000BE
:104C70000000000000000000000000000000000034
:104C8000000000000000FFFFFF0000000000000027
:104C900000000000000000000000000000002000F4
:104CA000023000061FF7FC0014000008000000009E
:104CB00000000000000000000000000000000018DC
:104CC00000006000004000004000002000001000D4
:104CD000000800000400000400000C0000100000A8
:104CE00000000000000000000000000000000000C4
:104CF00000000000000000000000000000000000B4
:104D000000000000000000000000000000000000A3
:104D10000000000000000000000000000000000093
:104D20000000000000000000000000000000000083
:104D30000000000000000000000000000000000073
:104D40000000000000000000000000000000000063
:104D50000000000000000000000000000000000053
:104D60000000000000000000000000000000000043
:104D7000000000000000000007F000C007FFE1E0B5
:104D800007F001E0000000C000000000000000008B
:104D90000000000000000000000000000000000013
:104DA0000000000000000000000000000000000003
:104DB00000000000000000000000000000000000F3
:104DC00000000000000000000000000000000000E3
:104DD00000000000000000000000000000000000D3
:104DE00000000000000000000020000001C00000E2
:104DF000078000001F0000001E0000001C200000B3
:104E000001C00000078000001F0000001E0000001D
:104E10001C00000000000000000000000000000076
:104E20000000000000000000000000000000000082
:104E30000000000000000000000000000000000072
:104E40000000000000000000000000000000000062
:104E50000000000000000000000000000000000052
:104E60000000000000180C0000180C0000180FE0F3
:104E7000001FFC0003F80C0000180C0000180C00C8
:104E800000180C0000180C0000180FE0001FFC00B8
:104E900003F80C0000180C0000180C0000000000C3
:104EA0000000000000000000000000000000000002
:104EB00000000000000000000000000000000000F2
:104EC00000000000000000000000000000000000E2
:104ED00000000000000000000000000000000000D2
:104EE000000000000000000000000780007807C0FC
:104EF00000FC0640010E0020030700200203802072
:104F00000FFFFFFC0201C0200200E0600130704092
:104F100001F03F8000F01F000000000000000000D2
:104F20000000000000000000000000000000000081
:104F30000000000000000000000000000000000071
:104F40000000000000000000000000000000000061
:104F50000000000000000000000000000000000051
:104F600000FE000001FF00000301800002008060DD
:104F7000030181C001FF070000FE18000000E000EF
:104F80000003BF00000CFFC00071806001C1002061
:104F9000030180600000FFC000003F00000000002F
:104FA0000000000000000000000000000000000001
:104FB00000000000000000000000000000000000F1
:104FC00000000000000000000000000000000000E1
:104FD00000000000000000000000000000000000D1
:104FE00000001F0000007FC000FCC0C001FF806007
:104FF0000303E0200202782002061E2003FC074083
:1050000001F00380000103C000011C600001E020EA
:1050100000010020000100400000018000000000AD
:105020000000000000000000000000000000000080
:105030000000000000000000000000000000000070
:105040000000000000000000000000000000000060
:105050000000000000000000000000000000000050
:1050600000000000002000001C6000001C40000048
:105070001F8000000F000000000000000000000082
:105080000000000000000000000000000000000020
:105090000000000000000000000000000000000010
:1050A0000000000000000000000000000000000000
:1050B00000000000000000000000000000000000F0
:1050C00000000000000000000000000000000000E0
:1050D00000000000000000000000000000000000D0
:1050E00000000000000000000000000000000000C0
:1050F0000000000000000000000000000007F800B1
:10510000003FFF00007807C001C000E0030000304E
:105110000400000808000004100000020000000065
:10512000000000000000000000000000000000007F
:10513000000000000000000000000000000000006F
:10514000000000000000000000000000000000005F
:10515000000000000000000000000000000000004F
:105160000000000010000002080000040400000815
:105170000300003001C000E0007807C0003FFF00DE
:105180000007F80000000000000000000000000020
:10519000000000000000000000000000000000000F
:1051A00000000000000000000000000000000000FF
:1051B00000000000000000000000000000000000EF
:1051C00000000000000000000000000000000000DF
:1051D00000000000000000000000000000000000CF
:1051E0000000000000000000000C1800000E380055
:1051F000000E3800000630000003600000614380AC
:1052000000FFFF80006143000003600000063000E3
:10521000000E3800000E3800000C180000000000DE
:10522000000000000000000000000000000000007E
:10523000000000000000000000000000000000006E
:10524000000000000000000000000000000000005E
:10525000000000000000000000000000000000004E
:10526000000000000000000000008000000080003E
:10527000000080000000800000008000000080002E
:10528000007FFF0000008000000080000000800020
:10529000000080000000800000008000000000008E
:1052A00000000000000000000000000000000000FE
:1052B00000000000000000000000000000000000EE
:1052C00000000000000000000000000000000000DE
:1052D00000000000000000000000000000000000CE
:1052E0000000000000000001000000E3000000E2F8
:1052F000000000FC0000007800000000000000003A
:10530000000000000000000000000000000000009D
:10531000000000000000000000000000000000008D
:10532000000000000000000000000000000000007D
:10533000000000000000000000000000000000006D
:10534000000000000000000000000000000000005D
:10535000000000000000000000000000000000004D
:1053600000000000000080000000800000008000BD
:10537000000080000000800000008000000080002D
:10538000000080000000800000008000000080001D
:10539000000080000000800000008000000000008D
:1053A00000000000000000000000000000000000FD
:1053B00000000000000000000000000000000000ED
:1053C00000000000000000000000000000000000DD
:1053D00000000000000000000000000000000000CD
:1053E0000000000000000000000000C0000001E01C
:1053F000000001E0000000C000000000000000000C
:10540000000000000000000000000000000000009C
:10541000000000000000000000000000000000008C
:10542000000000000000000000000000000000007C
:10543000000000000000000000000000000000006C
:10544000000000000000000000000000000000005C
:10545000000000000000000000000000000000004C
:10546000000000000000000C00000038000000E018
:105470000000038000000E00000038000000E00083
:1054800000038000000E00000038000000E0000073
:10549000038000000E000000180000000000000063
:1054A00000000000000000000000000000000000FC
:1054B00000000000000000000000000000000000EC
:1054C00000000000000000000000000000000000DC
:1054D00000000000000000000000000000000000CC
:1054E0000000000000000000000FF800007FFF0037
:1054F00000F00780018000C003000060020000206F
:10550000020000200200002003000060018000C0B3
:1055100000E00380007FFF00000FF80000000000A3
:10552000000000000000000000000000000000007B
:10553000000000000000000000000000000000006B
:10554000000000000000000000000000000000005B
:10555000000000000000000000000000000000004B
:10556000000000000000000000000000008000209B
:1055700000800020008000200080006001FFFFE02C
:1055800003FFFFE00000006000000020000000209A
:1055900000000020000000000000000000000000EB
:1055A00000000000000000000000000000000000FB
:1055B00000000000000000000000000000000000EB
:1055C00000000000000000000000000000000000DB
:1055D00000000000000000000000000000000000CB
:1055E0000000000000000000007800E0009801606A
:1055F0000100026002000460020008600200106006
:1056000002002060020040600300806001830060AF
:1056100001FE00E0007C07800000000000000000A8
:10562000000000000000000000000000000000007A
:10563000000000000000000000000000000000006A
:10564000000000000000000000000000000000005A
:10565000000000000000000000000000000000004A
:10566000000000000000000000F0078001F007C00B
:105670000100004002000020020100200201002081
:1056800002010020030380200186804001FCC0C08D
:1056900000787F8000001E00000000000000000075
:1056A00000000000000000000000000000000000FA
:1056B00000000000000000000000000000000000EA
:1056C00000000000000000000000000000000000DA
:1056D00000000000000000000000000000000000CA
:1056E0000000000000000800000038000000480032
:1056F0000001880000060800000C081000300810A7
:105700000040081001FFFFF003FFFFF003FFFFF070
:105710000000081000000810000008100000000041
:105720000000000000000000000000000000000079
:105730000000000000000000000000000000000069
:105740000000000000000000000000000000000059
:105750000000000000000000000000000000000049
:10576000000000000000000000000780001F8640CD
:1057700003E10020030200200304002003040020B2
:10578000030400200304002003060040030301C0BB
:105790000301FF8003007E00000000000000000005
:1057A00000000000000000000000000000000000F9
:1057B00000000000000000000000000000000000E9
:1057C00000000000000000000000000000000000D9
:1057D00000000000000000000000000000000000C9
:1057E00000000000000000000007FC00003FFF0078
:1057F0000070C380008180C00101006003020020AE
:1058000002020020020200200202002002030040E7
:1058100001C180C000C0FF8000007E0000000000C9
:105820000000000000000000000000000000000078
:105830000000000000000000000000000000000068
:105840000000000000000000000000000000000058
:105850000000000000000000000000000000000048
:10586000000000000000000000F0000003C0000085
:105870000380000003000000030007E003003FE096
:105880000301C000030600000318000003600000CD
:105890000380000003000000000000000000000082
:1058A00000000000000000000000000000000000F8
:1058B00000000000000000000000000000000000E8
:1058C00000000000000000000000000000000000D8
:1058D00000000000000000000000000000000000C8
:1058E0000000000000001F0000783F8000FC60C046
:1058F000018EC040030780200203002002018020A7
:10590000020180200201C0200301E040018670C036
:1059100000FC3F8000781F00000000000000000035
:105920000000000000000000000000000000000077
:105930000000000000000000000000000000000067
:105940000000000000000000000000000000000057
:105950000000000000000000000000000000000047
:1059600000000000003F000000FF81C001C0C1C076
:1059700001006020020020200200202002002020E0
:1059800002002060020040C00100C18000C18F0001
:10599000007FFE00001FF00000000000000000007B
:1059A00000000000000000000000000000000000F7
:1059B00000000000000000000000000000000000E7
:1059C00000000000000000000000000000000000D7
:1059D00000000000000000000000000000000000C7
:1059E00000000000000000000000000000000000B7
:1059F0000000000000000000000300C0000781E07C
:105A0000000781E0000300C000000000000000006B
:105A10000000000000000000000000000000000086
:105A20000000000000000000000000000000000076
:105A30000000000000000000000000000000000066
:105A40000000000000000000000000000000000056
:105A50000000000000000000000000000000000046
:105A60000000000000000000000000000000000036
:105A7000000000000000000000060066000600783C
:105A80000000000000000000000000000000000016
:105A90000000000000000000000000000000000006
:105AA00000000000000000000000000000000000F6
:105AB00000000000000000000000000000000000E6
:105AC00000000000000000000000000000000000D6
:105AD00000000000000000000000000000000000C6
